:020000040800F2
:1000000030D600205D0200082D380008CB2A0008F9
:10001000053600088D0A000831460008000000007F
:100020000000000000000000000000009D0100082A
:100030007510000800000000F9010008A13E00084A
:1000400077020008770200087702000877020008AC
:10005000770200087702000877020008770200089C
:10006000770200087702000877020008AD0F000849
:1000700077020008B90F000877020008770200082D
:10008000C50F000877020008770200087702000811
:10009000770200087702000877020008770200085C
:1000A000770200087702000877020008770200084C
:1000B000770200087702000877020008770200083C
:1000C000770200087702000877020008770200082C
:1000D0007702000877020008CD4500087702000883
:1000E000770200087702000877020008770200080C
:1000F00077020008770200087702000877020008FC
:1001000077020008770200087702000877020008EB
:10011000AD420008C542000877020008713F0008A0
:1001200077020008770200087702000877020008CB
:1001300077020008770200087702000877020008BB
:1001400077020008770200087702000877020008AB
:10015000770200087702000877020008770200089B
:10016000770200087702000877020008770200088B
:1001700077020008770200087702000800000000FC
:100180007702000877020008DFF80CD000F0D4FBFB
:10019000004800473555000830D600202C4B196820
:1001A0000868B0E8F04F80F30988BFF36F8F4FF015
:1001B000000080F3118870470000000008480068C4
:1001C000006880F308884FF0000080F3148862B65E
:1001D00061B6BFF34F8FBFF36F8F00DF00BF00BF6B
:1001E00008ED00E0DFF80C00016841F470010160E7
:1001F000704700BF88ED00E0EFF30980BFF36F8F19
:10020000134B1A681EF0100F08BF20ED108A20E96A
:10021000F04F106009B44FF0500080F31188BFF325
:100220004F8FBFF36F8F05F02BFF4FF0000080F36F
:10023000118809BC19680868B0E8F04F1EF0100F6B
:1002400008BFB0EC108A80F30988BFF36F8F704746
:1002500024000020EFF30580704700000648804727
:1002600006480047FEE7FEE7FEE7FEE7FEE7FEE79B
:10027000FEE7FEE7FEE7FEE7553F000889010008BC
:100280002DE9F05F0546002092469B4688460646CB
:10029000814640241BE0284641464746224600F05E
:1002A0007EFA53465A46C01A914110D31146184659
:1002B000224600F065FA2D1A67EB01084F462246E8
:1002C0000120002100F05CFA17EB00094E41201ECE
:1002D000A4F10104DFDC484631462A464346BDE826
:1002E000F09F40EA01039B0703D009E008C9121FF1
:1002F00008C0042AFAD203E011F8013B00F8013BE0
:10030000521EF9D27047D2B201E000F8012B491E0B
:10031000FBD270470022F6E710B513460A460446A2
:100320001946FFF7F0FF204610BD2DE9FE4F80462D
:1003300081EA0300C00F0C46009021F0004123F039
:100340000045B8EB0200A94105D24046214690463F
:100350001C460B46024623F00040104347D0270DB1
:10036000C7F30A00C3F30A510290401A01904028D3
:100370006BDAC3F3130040F4801B0098924620B15F
:100380000023D2EB030A63EB0B0B01985946C0F133
:100390004002504600F0F4F906460D4650465946D4
:1003A000019A00F00CFA10EB08006141002487EA82
:1003B000115284EAE7731A4340D0009A62B3019A5B
:1003C000012A4FEA075215DC001B61EB02014FF0D6
:1003D000004202EA0752CDE90042001C41F58011BB
:1003E00032462B4600F043FA03B0BDE8F08F40469A
:1003F0002146F9E7001B61EB0201001C41F5801367
:1004000000185B412018A2F5001747EB030140EAF2
:10041000D570B6196D4111E06D084FEA360645EA10
:10042000C0754FEA0752001B61EB0201001C41F549
:10043000801149084FEA30000019514132462B46DD
:1004400003B0BDE8F04F00F003BA0098012240006D
:100450000023D0EB020263EBE073009821464FEAE1
:10046000E074B8EB000061EB0401E9E783F00043BE
:100470005BE781F0004158E72DE9FE4F81EA030474
:1004800004F0004421F0004100944FF0000B23F0F1
:10049000004350EA01045ED052EA03045BD0C3F388
:1004A0000A54C1F30A552C44A4F2F3340194A0FB7E
:1004B0000254C1F3130141F48011C3F3130343F455
:1004C000801301FB024400FB034E840A970A44EAAE
:1004D000815447EA8357A4FB076802958D0A05FB00
:1004E00007854FEA932C04FB0C542705029D4FEA25
:1004F000065847EA1637B5EB08056EEB070C870E72
:10050000920E47EA811742EA8312A7FB0201B6EB7B
:100510000B0164EB00042B0D43EA0C335E1844EB33
:100520001C50DA465146E7FB0201C5F313044FEABB
:100530000B3343EA14534FEA0432019C43EA0603A7
:10054000A4F10C040294009CCDE900B400F08FF9F2
:1005500003B0BDE8F08F00200146F9E72DE9F04D2A
:1005600081EA030404F0004B21F0004514464FF0EB
:10057000000A23F0004150EA050220D054EA0102AB
:100580001DD0C5F30A570246C5F31303C1F3130088
:10059000C1F30A5640F4801543F48013A7EB060814
:1005A000101BD64608F2FD3873EB050002D308F1A4
:1005B000010801E092185B41B8F1000F03DA002056
:1005C0000146BDE8F08D00204FF4801106468446B8
:1005D0000EE0171B73EB050705D3121B63EB050336
:1005E00006434CEA010C49084FEA300092185B417F
:1005F00050EA0107EDD152EA030012D082EA04006A
:1006000083EA0501084305D0101BAB4106D2012245
:10061000002306E000224FF0004302E06FF00102E9
:1006200053101AEB06004CEB085110EB0A0041EB9B
:100630000B01BDE8F04D00F00BB90EB5C10F80EA1B
:10064000E0700844CA07002140F233438DE80E00F1
:100650000A460B4600F00BF903B000BD0EB540F2A0
:10066000334102910021CDE900110A460B4600F00A
:10067000FEF803B000BD70B5C1F30A5201F00045A9
:100680000024C1F3130140F2FF3341F480119A4278
:1006900001DA002070BD40F233439A42A2F23342A5
:1006A00003DC524200F07BF800E090402C43F1D094
:1006B000404270BDC1F30A5210B5C1F3130140F2BC
:1006C000FF3341F480119A4201DA002010BD40F25C
:1006D00033439A42A2F2334203DC524200F05FF805
:1006E00010BD904010BD000030B5041E71F1000433
:1006F00004DB4FF00044404264EB0101141E73F12F
:10070000000405DB1C464FF00043524263EB040338
:100710008B4208BF824230BD30B5041E71F1000427
:1007200004DB4FF00044404264EB0101141E73F1FE
:10073000000405DB1C464FF00043524263EB040308
:10074000994208BF904230BD01F0004330B421F01F
:10075000004150EA010206D00A0DA2F56072C1F311
:100760001301002A02DC30BC00207047440F44EA29
:10077000C104C100E01830BC00EBC25000F031B839
:10078000202A04DB203A00FA02F100207047914051
:10079000C2F1200320FA03F3194390407047202A46
:1007A00004DB203A21FA02F00021704721FA02F31B
:1007B000D040C2F120029140084319467047202AD8
:1007C00006DBCB17203A41FA02F043EAE07306E079
:1007D00041FA02F3D040C2F1200291400843194689
:1007E00070470029A8BF7047401C490008BF20F08F
:1007F0000100704710B4B0FA80FC00FA0CF050EA27
:10080000010404BF10BC704749B1CCF1200421FAA7
:1008100004F411FA0CF118BF012121430843A3EBA2
:100820000C01CB1D4FEA00614FEA102042BF0020AF
:1008300010BC704700EBC35010440029A4BF10BC8B
:100840007047401C490008BF20F0010010BC7047F1
:1008500010B5141E73F1000408DA401C41F10001C8
:1008600092185B411A4301D120F0010010BD2DE91F
:10087000F04D92469B4611B1B1FA81F202E0B0FA16
:1008800080F220329046FFF77BFF04460F4640EA95
:100890000A0041EA0B0153465A46084313D0114659
:1008A00053EA010019D0C8F140025046FFF777FF24
:1008B00005460E46504659464246FFF761FF08433B
:1008C00005D0012004E020463946BDE8F08D002027
:1008D000054346EAE0762C4337430A986305E40A69
:1008E000A0EB08000022FD0A44EA47540A3002D572
:1008F00000200146E9E7010510196941DDE90845D5
:1009000000196941BDE8F04DA2E770B521F0004340
:1009100003430CD0C1F30A550024D5EB040564EB66
:100920000403D617AD1AB34102DB0020014670BDA7
:10093000201841EB025170BD064C074D06E0E068FF
:1009400040F0010394E8070098471034AC42F6D316
:10095000FFF71EFC846C0008A46C00082DE9F04D24
:1009600000231A461B1A8A4103DB00200146BDE81A
:10097000F08DC1F30A52C1F3130141F480154FF019
:10098000000BD10702D100186D41521E002704460A
:1009900040F2FF11384601EB620A3E4680460246AD
:1009A00000204FF48011FFF7FAFEC2197141BB1805
:1009B00046EB0100B4EB030C75EB000C04D3E41A16
:1009C00065EB000517460E46241908F101006D413C
:1009D00080463428E3DDF91946EB0600091BA841DF
:1009E00003D24FF0FF32134601E0002213461BEB07
:1009F000070046EB0A51BDE8F04DFFF729BF70B57F
:100A00008C1810F8015B15F0070301D110F8013BB9
:100A10002A1106D110F8012B03E010F8016B01F840
:100A2000016B5B1EF9D12B0705D40023521E0DD498
:100A300001F8013BFAE710F8013BCB1A921C03E0E6
:100A400013F8015B01F8015B521EF9D5A142D8D31E
:100A5000002070BD10B500F0A1FA04F055FD02F0C1
:100A60007FFF02F0E5FE02F02DFF074C00224FF45D
:100A70008061204600F0D1FD0022E1142046BDE84F
:100A8000104000F0CABD000000180240FEE7000060
:100A900070B52DED108B82B09FEDD6DB9FEDD78B1F
:100AA0009FEDD89BD94DD5E9020103F0B5F99FED33
:100AB000D81B9FEDD90B03F0E7FDD94CB0EE40BA3F
:100AC000F0EE60BA6069FFF7C9FD53EC1B2BFFF72E
:100AD000D3FC41EC1B0BE868FFF7C0FD53EC1B2B6C
:100AE000FFF7C4FC41EC1C0B9FEDCE1B9FEDCA0B26
:100AF00003F0CAFDB0EE40BAF0EE60BAA069FFF7AD
:100B0000ADFD53EC1C2BFFF7B7FC53EC1B2BFFF791
:100B100025FD53EC1D2BFFF708FC41EC1B0B9FED53
:100B2000C31B9FEDBD0B03F0AFFDB0EE40EAF0EE4E
:100B300060EA2069FFF792FD53EC1C2BFFF79CFC49
:100B400053EC1E2BFFF70AFD41EC1F0B9FEDB91B69
:100B50009FEDB10B03F098FDB0EE40EAF0EE60EAD5
:100B6000A068FFF77BFD53EC1E2BFFF785FC53ECD1
:100B70001F2BFFF7DAFB41EC100B8DED000B9FED07
:100B80009F1B9FEDA50B03F07FFDB0EE40EAF0EE5A
:100B900060EAE068FFF762FD53EC1C2BFFF76CFC8A
:100BA00053EC1E2BFFF7DAFC41EC1F0B9FEDA31B50
:100BB0009FED990B03F068FDB0EE40EAF0EE60EABD
:100BC0006068FFF74BFD53EC1E2BFFF755FC53EC11
:100BD0001F2BFFF7AAFB41EC1E0B53EC1D2B51EC16
:100BE0001B0BFFF781FD70D29FED961B9FED8A0BCB
:100BF00003F04AFDB0EE49FAF0EE69FAB0EE408A31
:100C0000F0EE608A53EC1F2B51EC1C0BFFF734FC09
:100C100053EC1C2BFFF730FC53EC182BFFF79EFC1A
:100C200041EC1A0B53EC1D2B51EC1B0BFFF71EFC78
:100C30000E4646EC180B044653EC1F2B51EC180BD8
:100C4000FFF71AFC53EC182BFFF716FC9FED7FCB38
:100C500053EC1C2BFFF710FC41EC190B46EC184B26
:100C60009FED660B51EC180B53EC102BFFF704FCB7
:100C700053EC182BFFF700FC53EC1C2BFFF7FCFB8D
:100C800041EC180B9FED730B51EC1B0B53EC102B2D
:100C9000FFF72AFD2AD29FED710B51EC1B0B53EC91
:100CA000102BFFF742FB41EC1C0B53EC1F2BFFF703
:100CB000E3FB53EC1C2BFFF7DFFB53EC182BFFF788
:100CC00034FB41EC180B11E0FFE753EC1D2B51EC0A
:100CD0001B0BFFF721FD09D89FED628BB0EE48AAF0
:100CE000F0EE68AAB0EE489AF0EE689A53EC1A2B30
:100CF00051EC1B0BFFF7BAFB9FED5CBB53EC1B2BBE
:100D0000FFF72CFC9DED000B41EC1A0B53EC192B5B
:100D100051EC100BFFF7AAFB41EC190B53EC182B0D
:100D200051EC1E0BFFF7A2FB41EC1C0B9FED511B7E
:100D30009FED39DBB0EE4D0AF0EE6D0A03F0A4FC36
:100D4000B0EE408AF0EE608A9FED4C1BB0EE4D0A8B
:100D5000F0EE6D0A03F098FCB0EE40DAF0EE60DAE7
:100D6000A868FFF77BFC53EC1C2BFFF785FB53ECCB
:100D70001D2BFFF7F3FB53EC192BFFF777FB53EC1D
:100D8000182BFFF7EBFB53EC1B2BFFF7E7FB41ECBA
:100D9000100B85ED0A0B53EC102B95ED080B51EC65
:100DA000100BFFF763FB9FED2F0B41EC180B53EC7F
:100DB000102BFFF7B1FC05D951EC180B81F0004165
:100DC00041EC180B53EC1B2B51EC180BFFF754FBA9
:100DD0009FED2C1B53EC112BFFF7C0FBFFF76AFCB8
:100DE000288051EC1A0BFFF746FC686002B0BDEC9E
:100DF000108B70BD0000000000409F40000000000C
:100E000000001C400000000000000840800100209D
:100E10000000000000002040000000000000004032
:100E200088D00020000000000000374000000000D3
:100E300000001440000000000000324000000000EC
:100E40000000314000000000008040400000000031
:100E50000000C03F00000000007097C000000000CC
:100E6000007097400000000000000000000000003B
:100E7000000059400000000000002E40000000006B
:100E80000000354000000000008058402DED028B2E
:100E900082B005F0E9FC009002F032FC1E4E1F4DBE
:100EA0001F4CDFED208A9FED208A012004F01EFBFD
:100EB0007060D5F80200B0EE680A00EE900A1B4898
:100EC000C4ED000A02F070FD84ED020AD5F80600B8
:100ED000B0EE680A00EE900A1548C4ED010A02F06F
:100EE00063FD84ED030AD4ED020A30EE200A84ED9E
:100EF000040A38EE400A02F0D3FB94ED040A30EE07
:100F0000080A02F0E5FB0B4800F0BBFB3221684603
:100F100005F00CF8C9E7000014D2002067CF0020CC
:100F2000840000200000000000007042CCCC0020B3
:100F300014CD00203004002000B585B0142168468F
:100F4000FFF7E8F94FF48050009001200190022053
:100F500003906946024800F07FFA05B000BD00002A
:100F60000018024010B504460B4802F007FE08B115
:100F7000012010BD0848017800EE101AB8EE400AB2
:100F800084ED010A807800EE100A0020B8EE400AD5
:100F900084ED000A10BD0000B401002001221103FD
:100FA000014800F03ABB000000180240014800F080
:100FB000CFB80000F4060020014800F0C9B80000D6
:100FC00094060020014800F0C3B800005407002038
:100FD00001681823CAB2103AB2FBF3F2054B6FF363
:100FE0000901032A9B5CC36500D9091D8165084678
:100FF00070470000986B000810B5014600208B690F
:101000008A6A4FF0C07453B1B3F5005F15D072B166
:10101000012A0CD0022A0AD0032A09D104E01AB10D
:10102000012A06D0022A03D1C96AC90100D50120CC
:1010300010BDC96AA142FAD010BD002AF7D0012A1A
:10104000F2D0022AF3D0032AF3D010BD30B50468E1
:10105000256825F480252560046863608368402B3B
:10106000036803D099600068C26030BD9A60006870
:10107000C16030BD7047704710B5044601F0C2FE34
:101080000548018800EE101AB8EE400A84ED010A06
:101090004068206010BD0000800100202DE9F04173
:1010A0000446876D00F0BEFA064694F83500002528
:1010B000022806D08020606584F834500120BDE805
:1010C000F0812068016821F0160101602068416903
:1010D00021F080014161206C08B9A06C20B120682A
:1010E000016821F0080101602068016821F0010118
:1010F00001600BE000F096FA801B052806D920203D
:10110000606504F8345F03206070D8E720680068E9
:10111000C007EFD194F85C103F208840B86004F815
:10112000345F012060700020C9E790F83510022973
:1011300003D08021416501207047052180F83510DA
:101140000068016821F00101016000207047000083
:101150002DE9F84304464FF00009CDF800906348AC
:101160004FF41651A56D0068B0FBF1F72E6894F8A6
:101170005C10082000FA01F131420FD021680A68A2
:1011800052070BD50A6822F004020A6094F85C103A
:101190008840A860606D40F00100606594F85C10C4
:1011A0004FF0010808FA01F0304208D0216849697F
:1011B000090604D5A860606D40F00200606594F8EF
:1011C0005C1004208840304208D0216809688907F3
:1011D00004D5A860606D40F00400606594F85C1070
:1011E00010208840304218D021680968090714D5BA
:1011F000A86020680168490304D50068000308D589
:10120000A16C07E00168C90503D4016821F0080159
:101210000160216C09B12046884794F85C102020B9
:101220008840304231D021680968C9062DD5A860B0
:1012300094F8350005282068016806D0490347D591
:10124000006800031DD4616C1CE021F016010160F0
:101250002068416921F080014161206C08B9A06CCF
:1012600020B12068016821F00801016094F85C1049
:101270003F208840A86084F8349084F83580216D40
:101280001FE0E16B09B120468847606D00282BD034
:10129000606DC00714D0052084F83500206801680F
:1012A00021F0010101600098401C0090B84203D871
:1012B00020680068C007F6D184F8349084F835803F
:1012C000E16C002910D001B02046BDE8F04308478A
:1012D0000168C905D5D4016821F01001016084F8C6
:1012E000349084F83580CCE7BDE8F88320000020F6
:1012F0002DE9F041044600F095F906465CB1002561
:1013000084F83450022084F835002068016821F008
:10131000010101600DE00120BDE8F08100F082F9DB
:10132000801B052805D920206065032084F835003E
:10133000F2E720680068C007F0D1226811682048F1
:101340000140D4E901031843D4E903363343184379
:1013500063691843A3691843E3691843236A184370
:101360000843616A042903D1D4E90B1319430843E4
:10137000106020684069666A20F0070130460E431D
:10138000012704280CD1A06A0643E06A40B1204638
:10139000FFF732FE20B14020606584F83570BAE76F
:1013A000206846612046FFF713FE94F85C203F2139
:1013B00091408160656584F835700020ACE70000DD
:1013C0003F8010F02DE9F0410446866D90F834001E
:1013D000002501280DD0012084F8340094F83570E0
:1013E0000020012F07D084F8340002252846BDE8EC
:1013F000F0810220FBE7022784F835706065204603
:10140000FFF724FE94F85C103F208840B06020680D
:10141000016841F016010160206C20B1206801686C
:1014200041F0080101602068016841F0010101609C
:10143000DCE7000070B5044600F0F4F80546601CD7
:1014400002D004480078044400F0ECF8401BA042AD
:10145000FAD370BD140000202DE9F84F00224FF0A0
:10146000010803254FF00F0E0B6808FA02F4234021
:10147000A3426ED14E68012E05D0022E03D0112E4C
:1014800001D0122E12D186684FEA420C05FA0CF7F1
:10149000BE43CF6807FA0CF7374387604668A64318
:1014A0000C79C4F30014944034434460C668570078
:1014B00005FA07FC8C6826EA0C06BC403443C4607D
:1014C0004C68022C01D0122C13D1D40800EB8404F8
:1014D000A346D4F8209054074FEAD46A0EFA0AF6CD
:1014E00029EA06090E6906FA0AF646EA0906CBF861
:1014F000206006680C7926EA0C0604F00304BC4060
:10150000344304604C68E40065D5364C266846F4E4
:1015100080462660246822F0030604F48044009488
:10152000314C3444A446D4F808489607370F0EFAD5
:1015300007F6B4432D4EB04201D1002624E02C4ED4
:10154000B04201D101261FE02A4EB04202D102264C
:101550001AE040E0284EB04201D1032614E0274EA5
:10156000B04201D104260FE0254EB04201D105263C
:101570000AE0244EB04201D1062605E0224EB042D8
:1015800001D1072600E00826BE402643CCF80868B3
:101590001E4E34684F689C43FF0300D51C433460E3
:1015A0001A4C241D26684F689E43BF0300D51E4376
:1015B0002660164E083634684F689C43FF0200D5FB
:1015C0001C433460114E0C3634684F689C43BF0294
:1015D00000D51C433460521C102AFFF445AFBDE80F
:1015E000F88F000044380240003001400000024003
:1015F0000004024000080240000C024000100240BB
:101600000014024000180240001C0240003C01404F
:101610000069084000D0012070470AB1816170471D
:101620000904FBE7014880687047000014000020AF
:1016300070B5040011D021684CF6CC4008602168D8
:1016400045F255500860D4E9000141602168A06866
:101650008860FFF7E7FF054609E0012070BD00BF85
:10166000FFF7E0FF401B302801D9032070BD206840
:10167000C0680028F4D121684AF6AA20086000203A
:1016800070BD00684AF6AA21016000207047000082
:10169000024881680278114481607047140000207C
:1016A0000B4810B5016841F400710160016841F414
:1016B00080610160016841F480710160032000F0E5
:1016C00089F8002000F006F800F03EF8002010BD78
:1016D000003C024010B5014688B00022372000F0DF
:1016E00059F8372000F048F813480024016841F009
:1016F00020010160006805A900F0200006906846FE
:1017000000F014F900F032F90C494000B0FBF1F19F
:101710000C480B4A491E026040F2E732C0E903243C
:10172000C0E9011400F0D0FC10B1012008B010BDD8
:10173000044800F0F9FCF9E74038024040420F004D
:1017400000140040B40700200A4808B5016841F4BD
:1017500080410160006800F4804000900548001F4F
:10176000016841F080510160006800F080500090F5
:1017700008BD000044380240002809DB00F01F02C9
:10178000012191404009800000F1E020C0F80011E3
:1017900070470000F0B40E4B1B680C46C3F30223E5
:1017A000C3F10705042D00D90425191D072901D20D
:1017B000002300E0DB1E012606FA05F1491E214048
:1017C00099409E40761E16403143F0BC02F049BF5E
:1017D0000CED00E0064900F0070208684FF6FF0331
:1017E000184040EA0220034A104308607047000096
:1017F0000CED00E00000FA052DE9F0470E4605006B
:1018000065D0DFF81481D8F80000F7B200F00F00BF
:10181000B04207D288F80070D8F8000000F00F003E
:10182000B04254D128683D4C810712D5400703D5FA
:10183000206840F4E05020602878000703D5206835
:1018400040F4604020602068A96820F0F000084360
:1018500020602878C0072DD03049686808390128F1
:1018600012D0022813D0032811D009688907002953
:101870002DDA216821F0030101432160FFF7D2FE38
:10188000814641F2883A0EE009688903EFE709686A
:101890008901ECE7FFF7C6FEA0EB0901514502D92B
:1018A0000320BDE8F0872068696800F00C00B0EB09
:1018B000810FEFD1D8F80010404601F00F01B1427E
:1018C00007D90770006800F00F00B04201D0012076
:1018D000E7E72878400705D52068E96820F4E0505C
:1018E000084320602878000706D52068296920F47D
:1018F000604040EAC100206000F058F82168084AC2
:10190000C1F30311515CC8400649086006480068ED
:10191000FFF7E0FE0020C4E7003C02400838024028
:10192000A06B000820000020180000200F22026099
:101930000C4A136803F003034360136803F0F003D9
:101940008360136803F4E053C36012684FF4E053FC
:1019500003EAD20202610448006800F00F00086048
:101960007047000008380240003C02400448054926
:1019700000680968044AC1F38221515CC84070477D
:101980002000002008380240B06B000804480549D8
:1019900000680968044AC1F34231515CC84070478D
:1019A0002000002008380240B06B0008154810B530
:1019B000006810F00C02144813D04110042A0FD014
:1019C000082A0ED10F4C241F2268236802F03F0220
:1019D0005B0207D52068C0F38810A0FB010106E078
:1019E000084610BD2168C1F38811A1FB0001002346
:1019F000FEF746FC2168C1F30141491C4900B0FBD8
:101A0000F1F010BD083802400024F4002DE9F84F31
:101A100004006ED02078DFF83C93C007A9F10405DC
:101A20004AD009F104000168C1F38101012908D0FD
:101A30000068C0F3810002280AD1D9F800004002F2
:101A400006D52868800337D560680028E1D033E0E8
:101A50006068B0F5803F10D0B0F5A02F286810D096
:101A600020F480302860286820F480202860606896
:101A7000A8B1FFF7D7FD06460DE0286840F4803096
:101A8000F4E740F480202860F7E700BFFFF7CAFDC5
:101A9000801B642873D828688003F7D50CE0FFF713
:101AA000C1FD064605E000BFFFF7BCFD801B6428B2
:101AB000F0D828688003F7D42078DFF89C8280076C
:101AC0004FF0000A3ED5A348001D016811F00C0F2D
:101AD00008D00068C0F3810002280BD1D9F80000BB
:101AE000400207D42868800716D5E068012800D195
:101AF00012E02BE1E068B8B10120C8F80000FFF760
:101B000091FD064605E000BFFFF78CFD801B022813
:101B1000C0D828688007F7D52868216920F0F80028
:101B200040EAC10028600DE0C8F800A0FFF77AFD88
:101B3000064604E0FFF776FD801B02281FD82868C0
:101B40008007F7D42078000722D5824E8348616948
:101B5000703671B101210160FFF764FD074604E0B2
:101B6000FFF760FDC01B022809D830688007F7D551
:101B70000EE0C0F800A0FFF755FD074605E082E043
:101B8000FFF750FDC01B02287DD830688007F7D4CE
:101B90002078400768D5DFF8BCB100270BF13C0B7B
:101BA000DBF80000C0000BD4DBF8001041F08051DE
:101BB000CBF80010DBF80000012700F08050009007
:101BC000674E3068C00510D4306840F480703060D3
:101BD000FFF728FD009005E0FFF724FD0099401A6B
:101BE000022850D83068C005F6D55A4EA0686C3629
:101BF00001280FD00528306810D020F00100306097
:101C0000306820F004003060A068B8B1FFF70AFD2A
:101C100000900FE0306840F00100F4E740F004006D
:101C20003060F7E7FFF7FEFC0099411A41F2883077
:101C3000814266D830688007F4D50EE0FFF7F2FCE9
:101C4000009007E0FFF7EEFC0099411A41F288305E
:101C5000814256D830688007F4D42FB1DBF80010E9
:101C600021F08051CBF80010A069C8B33949091D93
:101C70000968C1F3810102294AD00228504607D0E1
:101C8000C8F8600000E03CE0FFF7CCFC04463BE015
:101C90004746C8F86000FFF7C5FC064605E000BFF0
:101CA000FFF7C0FC801B02282BD828688001F7D4DE
:101CB000D4E907010843A16A2A4A490802EB014115
:101CC000626A41EA8211084394F82C1040EA0161EB
:101CD000C9F8001001203866FFF7A4FC044606E0AE
:101CE00036E000BFFFF79EFC001B022809D82868D9
:101CF0008001F7D52CE000BFFFF794FC001B022801
:101D000002D90320BDE8F88F28688001F4D41FE0D1
:101D10000128F7D0D9F80000E26900F4800191426F
:101D200014D1226A00F03F0191420FD147F6C071F1
:101D3000626A0140914209D1A26A00F440319142A5
:101D400004D1E16A00F07060884201D00120D9E737
:101D50000020D7E70438024000004742800E474287
:101D6000007000400000FFFF70B5040005D00025A2
:101D7000A56294F8510010B106E0012070BD84F80E
:101D80005050204600F030F8022084F851002068BE
:101D9000016821F040010160D4E901010843D4E960
:101DA00003121143084361690843218B01F4007158
:101DB0000843E1690843216A0843A16A084321688E
:101DC0000860A069042101EA1040616A08432168A3
:101DD00048602068C16921F40061C1616565012026
:101DE00084F85100002070BD10B586B0044614215F
:101DF0006846FEF78FFA13492068884220D11248BE
:101E00000021026842F480520260006800F48050B1
:101E100005900D481438026842F001020260006823
:101E200000F001000590E02000900220CDE90101C2
:101E3000032003900520049069460448FFF70CFB3B
:101E400006B010BD0030014044380240000002409E
:101E50002DE9F84F044690F8500000270A9E1D46D1
:101E600092468B464FF0010901280ED0012084F8DC
:101E70005000FFF7D7FB804694F8510061680128B5
:101E80000CD0B1F5827F07D102E00220BDE8F88FC7
:101E9000A16809B9042801D00227C2E0BBF1000FF4
:101EA00027D0BAF1000F24D01DB394F851000428B4
:101EB00002D0052084F8510000206065C4F838A0E5
:101EC000E587A587C4F830B0E586A5862064606400
:101ED00020680168490603D4016841F040010160AF
:101EE000E068B0F5006F606805D0E8B3012D46D01A
:101EF0007FE0012795E008B1012D39D1206B2168E1
:101F00000088C860206B801C2063E08E401EE08645
:101F10002EE02068816889070FD5E18E69B1B9F19B
:101F2000010F0AD1216B0988C160206B801C2063DE
:101F3000E08E401EE0864FF0000920688168C907E6
:101F40000CD0E18F51B1C068A16B0880A06B801CE0
:101F5000A063E08F401EE0874FF00109FFF762FBAE
:101F6000A0EB0800B04200E009E001D3701C50D1A2
:101F7000E08E0028CDD1E08F0028CAD13FE0206B51
:101F8000216800780873206B401C2063E08E401E9F
:101F9000E0862EE02068816889070FD5E18E69B15F
:101FA000B9F1010F0AD1216B09780173206B401C34
:101FB0002063E08E401EE0864FF0000920688168B3
:101FC000C9070CD0E18F51B1C068A16B0870A06B3C
:101FD000401CA063E08F401EE0874FF00109FFF72F
:101FE00021FBA0EB0800B04202D3701C01D010E02E
:101FF0007EB1E08E0028CDD1E08F0028CAD14246C4
:102000003146204601F092FE28B10127202060656C
:1020100007E0032705E0A06818B92068C168806858
:102020000090012084F85100002084F850003846C8
:102030002CE770477047000070B590F83C20012AEB
:1020400032D0012480F83C40022280F83D20036811
:102050005A689D6822F070060A6832435A60134B32
:1020600002689A4214D0B2F1804F11D0104B9A42BC
:102070000ED0104B9A420BD00F4B9A4208D00F4B08
:102080009A4205D00E4B9A4202D00E4B9A4204D18E
:10209000496825F080031943916080F83D40002194
:1020A00080F83C10084670BD022070BD0000014061
:1020B0000004004000080040000C00400004014003
:1020C000004001400018004010B5040003D094F80F
:1020D0003D0010B107E0012010BD002084F83C0055
:1020E000204600F00DF8022084F83D00211D2068F4
:1020F00001F044FF012084F83D00002010BD0000E5
:1021000008B500680649884208D10648016841F0D0
:1021100001010160006800F00100009008BD0000AE
:1021200000000140443802400168CA6842F00102E0
:10213000CA600068816801F00701062903D00168C0
:1021400041F0010101600020704770B5044690F82D
:102150003C00012817D0012584F83C50022084F867
:102160003D002068826822F0770222F47F4282607C
:102170000868502830D00DDC20284DD005DC98B3FD
:1021800010283BD148E0022070BD302844D04028C0
:1021900034D139E0602828D0702806D0B0F5805FAF
:1021A0002CD0B0F5005F29D10AE0CB68D1E901213C
:1021B000206801F054FF2068816841F0770109E050
:1021C000CB68D1E90121206801F049FF20688168CE
:1021D00041F48041816011E0CA684968206802F0DA
:1021E00013F85021206807E016E0CA6849682068A3
:1021F00002F01BF86021206801F03BFF84F83D509D
:10220000002084F83C0070BDCA684968206801F06D
:10221000FBFF40212068EFE7226801461046EBE70C
:10222000704770B50446006801694FF00005C94366
:10223000890715D4C168C943890711D4E91E016112
:1022400001202077206880698007204602D0FFF7B0
:10225000E7FF04E000F0FEF8204600F0ABF9257738
:1022600020680169C943490717D4C168C9434907B0
:1022700013D46FF004010161022020772068806987
:1022800010F4407F204602D0FFF7CAFF04E000F0C0
:10229000E1F8204600F08EF9257720680169C943EE
:1022A000090716D4C168C943090712D46FF00801A1
:1022B0000161042020772068C0698007204602D091
:1022C000FFF7AEFF04E000F0C5F8204600F072F919
:1022D000257720680169C943C90617D4C168C94375
:1022E000C90613D46FF0100101610820207720681F
:1022F000C06910F4407F204602D0FFF791FF04E050
:1023000000F0A8F8204600F055F92577206801690B
:10231000C943C90708D1C168C943C90704D1891E87
:102320000161204600F06AF920680169C943090685
:1023300009D4C168C943090605D46FF08001016161
:102340002046FFF776FE20680169C943490609D493
:10235000C168C943490605D46FF0400101612046B8
:1023600000F056F920680169C94389060BD4C16899
:10237000C943890607D46FF0200101612046BDE8FA
:102380007040FFF757BE70BD30B587B004461421CA
:102390006846FDF7BFFF2168002527480224B1F1F8
:1023A000804F21D0254A914232D1016841F002018B
:1023B0000160016801F002010591016841F004012A
:1023C00001600068694600F00400059003208DE874
:1023D0003100CDE903541A48FFF73EF8C0208DE8DC
:1023E00031006946174824E0016841F001010160AD
:1023F0000068694600F00100059006208DE8310074
:102400000120CDE903501048FFF726F807B030BD92
:102410000E4A9142FAD1016841F00801016000685A
:10242000694600F0080005904FF470408DE83100D7
:102430000748CDE90354E7E7303802400004004084
:102440000004024000080240000002400008004072
:10245000000C0240704770B5044690F83C000D46F1
:1024600001280DD0012684F83C60022084F83D004C
:1024700042B1042A18D0082A2AD00C2A4DD139E0BA
:10248000022070BD206801F0FDFD2068816941F0E7
:10249000080181612068816921F00401816120685F
:1024A00081692A69114311E0206801F01BFE206850
:1024B000816941F4006181612068816921F4806152
:1024C0008161206881692A6941EA0221816124E0F1
:1024D000206801F03DFE2068C16941F00801C1613A
:1024E0002068C16921F00401C1612068C1692A69BD
:1024F000114311E0206801F05FFE2068C16941F4DA
:102500000061C1612068C16921F48061C1612068F6
:10251000C1692A6941EA0221C16184F83D60002055
:1025200084F83C0070BD10B5040003D094F83D0061
:1025300010B107E0012010BD002084F83C002046C7
:1025400000F00CF8022084F83D00211D206801F005
:1025500015FD012084F83D00002010BD08B501687C
:102560001148B1F1804F0BD0104A914210D101684F
:1025700041F002010160006800F00200009008BD17
:10258000016841F001010160006800F00100F5E719
:10259000074A9142F3D1016841F0040101600068EB
:1025A00000F00400EAE70000403802400004004068
:1025B000000800407047000010B504460068012282
:1025C00001F040FD0B492068884202D00A49884248
:1025D00003D1416C41F4004141642068816801F0FD
:1025E0000701062903D0016841F0010101600020C4
:1025F00010BD0000000001400004014000680349D4
:10260000884201D1FFF744B8704700000014004031
:10261000704710B504460068416994F83920C1F349
:10262000C011212A0BD151B1416921F080014161D2
:10263000206B08B1FEF732FD204601F0ADFE2068A8
:10264000416994F83A20C1F38011222A0BD151B18B
:10265000416921F040014161606B08B1FEF71EFD48
:10266000204601F08BFE002010BD704770B5026857
:1026700004461068D168536910F00F0F52D003F070
:10268000010501F490762E435FD0C20705D0CA053C
:1026900003D5E26B42F00102E263420705D5DA0797
:1026A00003D0E26B42F00202E263820705D5DA074B
:1026B00003D0E26B42F00402E263020707D501F0A7
:1026C00020022A4303D0E26B42F00802E263E26B8D
:1026D000002A33D0800604D5880602D5204601F0B2
:1026E00064FE20684069E16BC0F38010090700D4E4
:1026F00028B3204601F042FE2068416949061AD5F8
:10270000416921F040014161606BA0B11B49016545
:10271000606BFEF70AFD002810D0606B016DBDE80C
:1027200070400847830610D58B060ED52046BDE8BD
:10273000704001F03ABE2046FFF797FF70BD20467B
:10274000FFF793FF0020E06370BD030606D50B067C
:1027500004D52046BDE8704001F006BF4006F3D521
:102760004806F1D5D168204621F04001D1602021F2
:1027700084F8391000F0A8F970BD0000DD420008AF
:1027800070B5040004D094F83900002510B106E0BB
:10279000012070BD84F83850204600F023F8242032
:1027A00084F839002068C16821F40051C1602046D6
:1027B00001F046FE2068016921F490410161206822
:1027C000416921F02A0141612068C16841F400514A
:1027D000C160E563202084F8390084F83A000020C5
:1027E00070BD00002DE9F04F87B005461421684602
:1027F000FDF790FD84498448DFF808C22B68002467
:102800001038012602224F054FF003084FF0080E42
:102810004FF48069634547D10B6843F400230B6094
:10282000096801F400210591016841F0010101608E
:10283000016801F001010591016841F004010160A6
:102840000068CDE9006200F00400CDE904E0CDE9C4
:1028500002689246F34669466C48FEF7FDFDF002B9
:10286000CDE9000A02AB694683E840096848FEF7F3
:10287000F3FD694E67483060C6E90174C6E9034953
:102880007461B461F461346230467462FEF730FD05
:1028900008B1FEF7F0FB6E63002205213420B5631A
:1028A000FEF778FF34204EE0DFF870C163454FD16A
:1028B0000B6843F480130B60096801F480110591E3
:1028C000016841F004010160016801F00401059113
:1028D000016841F008010160006802AB00F00800E7
:1028E00005904FF48050CDE90002F24683E84005A0
:1028F000934669464648FEF7AFFD0420CDE9000B3C
:1029000002AB694683E840054548FEF7A5FD424E07
:102910004048603630383060C6E90174C6E9034982
:102920007461B461F461346230467462FEF7E0FCB5
:1029300008B1FEF7A0FB6E63002205213520B563C8
:10294000FEF728FF3520FEF717FF07B0BDE8F08F30
:10295000DFF8D0C0072663451BD12B49091D0B6842
:1029600043F010030B60096801F010010591016844
:1029700041F0010101600068049600F0010005903B
:102980004FF4C0608DE8150169462048FEF764FDEC
:10299000DBE7DFF894C06345D7D10B6843F400331D
:1029A0000B60096801F400310591016841F00801EC
:1029B00001600068049600F00800059060208DE832
:1029C000150169461648FEF747FD134E1148C036FB
:1029D00048303060C6E90174C6E903497461B461E6
:1029E000F461346230467462FEF782FC08B1FEF78F
:1029F00042FB6E63002205212620B563FEF7CAFE66
:102A00002620A0E7004C0040403802400000024071
:102A10000008024040600240940600200050004040
:102A2000000C02400010014000440040F8B504468C
:102A300090F83A0020283CD1C1B3BAB394F83800DA
:102A4000012836D0012084F83800A162A285002533
:102A5000E563222084F83A00636B1748D863636B00
:102A600016481864636B1648D864606B1346056596
:102A70000846666B216802463046091DFEF7A2FC37
:102A8000206801684168009184F83850C16841F4B9
:102A90008071C1602068416941F001014161206895
:102AA000416941F0400141610020F8BDFFE701208C
:102AB000FBE70220F9E700003743000873430008F2
:102AC000ED420008704770477047FEE770B51E4D35
:102AD00004462878C00736D06988281D00F05EF8C3
:102AE0004FF480763146281DFDF714FC05F5827001
:102AF000324690ED080A291D84ED020A90ED070A7E
:102B000084ED010A90ED060A84ED000A90ED030AB7
:102B100084ED030A90ED040A84ED040A90ED050AA1
:102B200084ED050A90ED000A84ED060A90ED010A95
:102B300084ED080A90ED020A044884ED070AFFF7C5
:102B400075FF0020287070BDA8D00020540600201A
:102B500008B503F089FE0D4D0D4E0E4C4FF0FF37BA
:102B600000903A460C49286803F042FD40B12046E7
:102B7000FFF7ACFF022300222146306803F090FBF0
:102B80003221684603F0D2F9EBE70000C4010020CF
:102B9000D0010020A0CC0020980000202DE9F047B3
:102BA00076492DED048B01F1300502680A63426815
:102BB0004A6302890A87847A81F83A40D0F80B2068
:102BC000C1F83B20D0F80F20C1F83F20B0F8132007
:102BD000A1F84320437D81F84530D0F81620C1F894
:102BE0004620D0F81A20C1F84A20C28BA1F84E2006
:102BF00090F8200081F850008146287855287CD133
:102C000001F13B063078552877D101F14607387835
:102C1000552872D14FF0000C624661464FEA0C0015
:102C200015F80080C44416F800800CF0FF0C4244F4
:102C300017F80080401C4144C0B2D2B2C9B20A2881
:102C4000EED3644559D1934257D1894555D1B5F951
:102C50000200FDF7F2FC9FED4A8B53EC182BFDF7B9
:102C60000BFC9FED499B53EC192BFDF705FCFDF781
:102C70006BFD424C241D2060B5F90400FDF7DDFC1E
:102C800053EC182BFDF7F8FB53EC192BFDF7F4FB75
:102C9000FDF75AFD6060B5F90600FDF7CEFC53EC78
:102CA000182BFDF7E9FB53EC192BFDF7E5FBFDF7BE
:102CB0004BFDA060B6F90200FDF7BFFC53EC182BEA
:102CC000FDF7DAFB9FED329B53EC192BFDF7D4FB9C
:102CD000FDF73AFDE060B6F90400FDF7AEFC53ECF9
:102CE000182BFDF7C9FB53EC192BFDF7C5FBFDF7BE
:102CF0002BFD2061B6F9060000E03BE0FDF79DFCEE
:102D000053EC182BFDF7B8FB53EC192BFDF7B4FB74
:102D1000FDF71AFD6061B7F90200FDF78EFC53EC78
:102D2000182BFDF7A9FB9FED1C9B53EC192BFDF70E
:102D3000A3FBFDF709FDA061B7F90400FDF77DFCD9
:102D400053EC182BFDF798FB53EC192BFDF794FB74
:102D5000FDF7FAFCE061B7F90600FDF76EFC53ECF5
:102D6000182BFDF789FB53EC192BFDF785FBFDF7BD
:102D7000EBFC2062BDEC048BBDE8F087A8D10020FD
:102D8000000000000000003F000000000000304094
:102D90000000000000409F400000000000806640EE
:102DA0007CB5044600680068C043C00621D4206892
:102DB00000250168406801902046FFF72AFC009535
:102DC000606B006840680B490B4C0860C0F5807070
:102DD0006080012020700948006820B100236A4605
:102DE000A11C03F00DFB4FF48072211D0448FFF776
:102DF0001DFE7CBDB0010020A8D00020C401002031
:102E00005406002070B5354C354DA069012801D01D
:102E100070B35BE0002210212846FEF7FEFB002085
:102E200001F010F8002001F00DF80004A06000206F
:102E300001F008F8A16801EB0020A060002001F07B
:102E400001F8A16801220844A06010212846FEF77D
:102E5000E4FB002210212846FEF7DFFB562000F09D
:102E6000F1FF012210212846FEF7D7FB00202CE0BD
:102E7000002210212846FEF7D0FB002000F0E2FFE0
:102E8000002000F0DFFF0004E060002000F0DAFF27
:102E9000E16801EB0020E060002000F0D3FFE16872
:102EA00001220844E06010212846FEF7B6FB00220C
:102EB00010212846FEF7B1FB462000F0C3FF012297
:102EC00010212846FEF7A9FB0120A061D4E90201E8
:102ED00000F0A2FFBDE87040FDF7DABD80010020E0
:102EE0000000024070B5724D012210212846FEF705
:102EF00094FB002210212846FEF78FFB1E2000F0D5
:102F0000A1FF0A2002F0CEFA012210212846FEF786
:102F100084FB002210212846FEF77FFBA02000F052
:102F200091FFFF2000F08EFF624C00022060FF2026
:102F300000F088FF21680122084420601021284603
:102F4000FEF76BFB002210212846FEF766FBA2204D
:102F500000F078FFFF2000F075FF00026060FF20A6
:102F600000F070FF6168012208446060102128466B
:102F7000FEF753FB002210212846FEF74EFBA4204B
:102F800000F060FFFF2000F05DFF0002A060FF2066
:102F900000F058FFA16801220844A06010212846D3
:102FA000FEF73BFB002210212846FEF736FBA62049
:102FB00000F048FFFF2000F045FF0002E060FF2026
:102FC00000F040FFE16801220844E060102128463B
:102FD000FEF723FB002210212846FEF71EFBA82047
:102FE00000F030FFFF2000F02DFF00022061FF20E5
:102FF00000F028FF216901220844206110212846A1
:10300000FEF70BFB002210212846FEF706FBAA2044
:1030100000F018FF6061FF2000F014FF0002606103
:10302000FF2000F00FFF6169012208446061102158
:103030002846FEF7F2FA002210212846FEF7EDFAA4
:10304000AC2000F0FFFEFF2000F0FCFE0002A061BB
:10305000FF2000F0F7FEA16901220844A0611021C1
:103060002846FEF7DAFA002210212846FEF7D5FAA4
:10307000AE2000F0E7FEFF2000F0E4FE0002E06179
:10308000FF2000F0DFFEE16901220844E061102129
:103090002846FEF7C2FA00F0CDFD00F009FEFDF76C
:1030A000F7FC054890ED0A0B80ED080B70BD0000A1
:1030B0000000024088D0002080010020114808B59F
:1030C000016841F4001101600068002200F4001062
:1030D000009005210B20FEF75DFB0B20FEF74CFB5B
:1030E000002205210D20FEF755FB0D20FEF744FBC5
:1030F000002205211020FEF74DFBBDE808401020FE
:10310000FEF73ABB3038024010B5A4B001F0A0F889
:103110001C221C496846FDF7E4F80021684602F0CD
:1031200042FA194C17491C2220601C3107A8FDF7F0
:10313000D8F8002107A802F036FA124960601C2274
:1031400038310EA8FDF7CDF800210EA802F02BFAB9
:103150000C49A0601C22543115A8FDF7C2F80021CB
:1031600015A802F020FA0749E0601C2270311CA863
:10317000FDF7B7F800211CA802F015FA206124B071
:1031800010BD00000C6B0008000000202DE9F04786
:1031900086B014216846FDF7BDF838480024016860
:1031A00041F080010160016801F080010591016832
:1031B00041F001010160016801F001010591016820
:1031C00041F002010160016801F00201059101680E
:1031D00041F010010160016801F0100105910168E2
:1031E00041F008010160016801F0080105910168E2
:1031F00041F004010160016801F0040105910168DA
:1032000041F0400101600068DFF8748000F0400088
:103210000590002210214046FEF7FFF9DFF8649088
:103220004FF4E056002231464846FEF7F6F9DFF843
:1032300058A04FF44067002239465046FEF7EDF99A
:10324000102000900125CDE90154694640460394C1
:10325000FEF702F90096CDE9015469464846039409
:10326000FEF7FAF80097CDE90154694650460394F9
:10327000FEF7F2F806B0BDE8F087000030380240F3
:10328000000002400010024000180240094810B53A
:10329000074901600321416040F6B8318160FEF7C3
:1032A000C7F9002803D0BDE81040FDF7E4BE10BD0B
:1032B00000300040300400200F4810B50D49016077
:1032C0004FF48271416000218160C1604FF400724F
:1032D0000161C0E90512C1610162416281620A2196
:1032E000C162FEF741FD002803D0BDE81040FDF7A4
:1032F000C2BE10BD003001403C04002010B586B0B5
:1033000000241748009401940294039404941349F0
:10331000059401605321C0E9011444F62061C0E91D
:10332000031444618461FEF7CFFE08B1FDF7A3FEEC
:103330004FF48050009069460948FEF706FF08B137
:10334000FDF799FE049404A905480594FEF774FE60
:10335000002801D0FDF78FFE06B010BD000001402F
:103360009404002010B58AB0002407941C216846FC
:103370000894FCF7CFFF1A484FF0804101605321B9
:10338000C0E9011444F62061C0E903148461FFF729
:10339000CAF808B1FDF76FFE079407A91048089412
:1033A000FEF74AFE08B1FDF766FE6020CDE9000495
:1033B0000294042269460A480494FFF74CF808B1C5
:1033C000FDF759FE082269460548FFF744F808B1A1
:1033D000FDF751FE0248FEF7D7FF0AB010BD00000E
:1033E000D404002010B58AB0002407941C2168463C
:1033F0000894FCF78FFF2248204901605321C0E95F
:10340000011444F62061C0E903148461FFF78BF8CE
:1034100008B1FDF730FE079407A919480894FEF794
:103420000BFE08B1FDF727FE6020CDE900040294F1
:103430000022694612480494FFF70DF808B1FDF721
:103440001AFE042269460E48FFF705F808B1FDF799
:1034500012FE082269460A48FEF7FDFF08B1FDF793
:103460000AFE0C2269460648FEF7F5FF08B1FDF793
:1034700002FE0348FEF788FF0AB010BD00040040BA
:103480001405002010B58AB0002407941C2168465A
:103490000894FCF73FFF2248204901605321C0E90E
:1034A000011444F62061C0E903148461FFF73BF87E
:1034B00008B1FDF7E0FD079407A919480894FEF745
:1034C000BBFD08B1FDF7D7FD6020CDE900040294F3
:1034D0000022694612480494FEF7BDFF08B1FDF7CB
:1034E000CAFD042269460E48FEF7B5FF08B1FDF794
:1034F000C2FD082269460A48FEF7ADFF08B1FDF794
:10350000BAFD0C2269460648FEF7A5FF08B1FDF793
:10351000B2FD0348FEF738FF0AB010BD00080040B6
:10352000540500200C4810B50A4901604FF4E13100
:103530004160002181600C22C160C0E904128161F8
:10354000C161FFF71DF9002803D0BDE81040FDF769
:1035500092BD10BD004C0040940500200C4810B5F1
:103560000A4901604FF4E1314160002181600C2281
:10357000C160C0E904128161C161FFF701F900284F
:1035800003D0BDE81040FDF776BD10BD00500040EF
:10359000D40500200C4810B50A4901604FF4E13110
:1035A0004160002181600C22C160C0E90412816188
:1035B000C161FFF7E5F8002803D0BDE81040FDF732
:1035C0005ABD10BD00100140140600200C4810B573
:1035D0000A4901604FF416514160002181600C22BC
:1035E000C160C0E904128161C161FFF7C9F8002818
:1035F00003D0BDE81040FDF73EBD10BD00440040C3
:1036000054060020FEE7000008B503F02DF9234D15
:103610001E4FDFF87C80DFF87C901F4CA5F1280658
:103620000090386818B101221B4902F047FFD8F812
:10363000000020B118490122083102F03FFFD9F8FB
:10364000000020B1144901222C3102F037FFD4EDE3
:10365000010A1E21C5ED010A94ED050A684685EDB3
:10366000050A94ED041A85ED021A94ED0C1A85ED05
:10367000081AC6ED000AD4ED000AF8EEE00AC6ED1D
:10368000010A86ED040A02F051FCCAE7CC010020D1
:10369000D0010020D401002098CC00205CCC002078
:1036A000DFED090A094830EE201A0268BCEEC11AA3
:1036B00011EE101A516330EEC00A0068BCEEC00A69
:1036C00010EE101AC16370470080BB44140500203F
:1036D000DFED090A094830EE201A0268BCEEC11A73
:1036E00011EE101A516330EEC00A0068BCEEC00A39
:1036F00010EE101AC16370470080BB4454050020CF
:103700003A4801219FED3A0A017080ED460A9FED8B
:10371000390ADFED390A80ED440A9FED381AC0ED11
:10372000070A80ED081AC0ED090AF7EE000A9FEDBE
:10373000341AC0ED0A0A80ED0B1A9FED321ADFED44
:10374000331A80ED0C1A9FED301A9FED312A80ED6F
:10375000131AC0ED141A80ED151AC0ED160ADFED2C
:103760002D2A80ED172AC0ED182AB6EE003A80ED1A
:103770001D3A9FED293A80ED1E0A80ED1F3A9FED1C
:10378000273ADFED273A80ED1C3AC0ED213ADFED14
:10379000253AC0ED223AF7EE083AC0ED3C3AF3EE96
:1037A000093AC0ED3B3AC0ED410ADFED1F3A80ED2A
:1037B000420AC0ED433A80ED403AC0ED290A80ED5F
:1037C0002A0A80ED2B0AC0ED2C0A80ED2D0A80ED2F
:1037D0002E0A80ED351AC0ED361A80ED371AC0ED8D
:1037E000380A80ED392AC0ED3A2A704734CE0020DD
:1037F0000AD7A33C00000000B1E1693D1E16EA3D76
:103800003D9B85BF03788B3EB30C713EB30CF13EFC
:10381000B37B72BDFAED6B3A0AD7A33D0000C842F4
:103820000000FA440000FAC40AD7233C70470000A5
:1038300038B50949094C002001F8030B2068C2681B
:1038400042F01002C26014222046FFF7EFF8206811
:1038500001684068009038BD50CF002094050020DA
:1038600038B5054600680168C943C90624D4016813
:10387000406800902846FEF7CCFE686B0068406800
:103880000E490F4C086001202070D4F80300C4F8E2
:103890001700D4F80700C4F81B00B4F80B00A4F814
:1038A0001F001421E01CFCF735FD1422E11C284602
:1038B000BDE83840FFF7BAB838BD000078010020F5
:1038C00050CF002038B50B490B4D002401F8044BB4
:1038D0002868C26842F01002C2604FF48072284625
:1038E000FFF7A4F828680168406800900348C0F812
:1038F0000E4038BD72CF0020D405002076D00020C5
:1039000038B50446134801680868C043C0061FD490
:103910000868486800900F48FEF77BFE606B0068FF
:1039200040680D490D4C1222086001202070211DB5
:1039300004F58270FCF7D5FC1421201DFCF7EAFC8D
:10394000211DBDE838404FF480720248FFF76EB881
:1039500038BD0000D40500207C01002072CF00207B
:1039600000B50E490E4800F08CF80C490C482C317B
:10397000483000F086F8094909485831903000F085
:1039800080F8064906488431D83000F07AF80349B7
:103990000448B0315DF804EB00F073B89C000020DF
:1039A000CCCC0020ECCD002070EE601AC0ED001AE7
:1039B00090ED030A60EE210AC0ED060A90ED0A0AB6
:1039C000F4EEC00AF1EE10FA06DC90ED0E0AF4EE09
:1039D000C00AF1EE10FA01D2F0EE400AC0ED060A7C
:1039E00090ED070A90ED041A01EE210A80ED070A16
:1039F00090ED0B1AB4EEC10AF1EE10FA06DC90ED70
:103A00000F1AB4EEC10AF1EE10FA01D2B0EE410A7B
:103A100080ED070A90ED011A90ED052A31EEC11AEA
:103A200021EE021A80ED081A90ED0C2AB4EEC21AAB
:103A3000F1EE10FA06DC90ED102AB4EEC21AF1EEA7
:103A400010FA01D2B0EE421A30EE800A80ED081A68
:103A500030EE010A80ED090AD0ED0D0AB4EEE00A5D
:103A6000F1EE10FA06DCD0ED110AB4EEE00AF1EE48
:103A700010FA01D2B0EE600A80ED090AC0ED011A19
:103A8000704791ED000A80ED030A91ED010A80ED87
:103A9000040A91ED020A80ED050A91ED030A80ED1A
:103AA0000A0A91ED040A80ED0E0A91ED050A80EDF7
:103AB0000B0A91ED060A80ED0F0A91ED070A80EDE1
:103AC0000C0A91ED080A80ED100A91ED090A80EDCB
:103AD0000D0A91ED0A0A80ED110A704708B502F04F
:103AE000C3FE0A4C0A4D009009480C30FDF7C4FA99
:103AF000206830B10649022300220C3102F0D0FBCD
:103B000028706421684602F011FAEDE7CC0100202C
:103B10008CCC00202DE9F0410025174E2C464FF4A7
:103B200080574FF0010839463046FDF771FD0028F7
:103B3000F9D0282001F0C5FC39463046FDF768FD74
:103B400001280BD0C4F1070108FA01F08543641C79
:103B5000E4B2082CE7D32846BDE8F0813946304668
:103B6000FDF756FD0128F9D0C4F1070108FA01F06C
:103B7000C0B20543EBE700000018024070B586B004
:103B80000446FDF7D9F92A4E4FF480550022294604
:103B90003046FDF742FD122001F084FC0122294647
:103BA0003046FDF73AFD1E2001F08BFC14216846DB
:103BB000FCF7B0FB0020CDE900500290694630468A
:103BC000FDF74AFC29463046FDF722FD70BB294629
:103BD0003046FDF71DFD0028F9D029463046FDF797
:103BE00017FD0128F9D0FFF795FF2070FFF792FF2E
:103BF0006070FFF78FFFA070FFF78CFFE070FFF79A
:103C000089FF2071FDF798F9012229463046FDF71A
:103C100004FD20786178E2780844A17811440844D2
:103C20002179884202D1002006B070BD0120FBE757
:103C30000018024070B51C4D012210212846FDF7E6
:103C4000ECFC002210212846FDF7E7FC462000F09E
:103C5000F9F8012210212846FDF7DFFC0A20FDF7C4
:103C6000E9FB002210212846FDF7D7FC002000F0D8
:103C7000E9F8002000F0E6F80C4C0004A0600020F9
:103C800000F0E0F8A16801EB0020A060002000F047
:103C9000D9F8A16801220844A0602846BDE8704018
:103CA0001021FDF7BABC0000000002408001002096
:103CB00070B51C4D012210212846FDF7AEFC0022F4
:103CC00010212846FDF7A9FC562000F0BBF8012280
:103CD00010212846FDF7A1FC0A20FDF7ABFB0022CE
:103CE00010212846FDF799FC002000F0ABF80020D9
:103CF00000F0A8F80C4C0004E060002000F0A2F8EE
:103D0000E16801EB0020E060002000F09BF8E16832
:103D100001220844E0602846BDE870401021FDF70C
:103D20007CBC0000000002408001002038B5044641
:103D30001248134B0068B0FBF3F04FF47A7358430A
:103D400000906068B0F5827F0DD10B460092002292
:103D50008021204600F016F870B1606D40F0200020
:103D60006065032038BD009830B1401E0090206887
:103D70008068C0430006F6D5002038BD2000002032
:103D800000366E012DE9F0411D4617460E460446E9
:103D9000DDF8188008E0681C06D0FDF743FCA0EBB6
:103DA0000800A8420BD255B12068806836EA0000AE
:103DB00030D00020B842EED10020BDE8F08120686C
:103DC000416821F0E00141606068B0F5827F0BD16D
:103DD000A068B0F5004F02D0B0F5806F04D1206824
:103DE000016821F040010160A06AB0F5005F09D1CF
:103DF0002068016821F4005101602068016841F4E5
:103E000000510160012084F85100002084F8500026
:103E10000320D2E70120CDE7F0B5094A6FF07F47D4
:103E200013469668D3E90443BE4204D0D568BD4228
:103E300001D006B10DB9C2E90243C2E90401F0BDE7
:103E4000800100200EB501238DF808004FF47A7030
:103E5000009001AA02A90548FDF7FAFF10B1FF2062
:103E60008DF804009DF804000EBD00003C04002005
:103E700008B502F0F9FC084D084C00902046FDF70B
:103E800071F8022300222146286802F009FA642111
:103E9000684602F04BF8F1E7D4010020C4CC0020C2
:103EA00010B5502080F31188BFF34F8FBFF36F8F91
:103EB00002F0E0FC18B104494FF080500860002087
:103EC00080F3118810BD000004ED00E030B593B020
:103ED00030216846FCF71EFA14210CA8FCF71AFAE8
:103EE0001A480025016841F080510160006800F027
:103EF000805011901648016841F4804101600068CB
:103F0000022400F480401190092000904FF480308A
:103F100001900120CDE905048005079008AA04203E
:103F2000A82182E813000B906846FDF76FFD0CA9ED
:103F30000F2081E831004FF4A0500F90E002109064
:103F400005210CA8FDF758FC13B030BD40380240E5
:103F5000007000400548016841F4700101600349A8
:103F60004FF00060803908607047000088ED00E085
:103F70000148FEF756B90000B4070020F0B502680A
:103F8000254C264D264E274F274B4FF0804CA04204
:103F900009D0604507D0A84205D0B04203D0B8424E
:103FA00001D0984204D122F0700E4A6842EA0E0213
:103FB000A0421BD0604519D0A84217D0B04215D0FE
:103FC000B84213D0984211D0184DA8420ED0184DC7
:103FD000A8420BD0174DA84208D0174DA84205D0D3
:103FE000164DA84202D0164DA84203D122F44075C6
:103FF000CA682A434D6922F080022A4302608A6817
:10400000C2620A688262A04201D0984201D1096965
:10401000016301214161F0BD000001400004004046
:1040200000080040000C0040000401400040014036
:10403000004401400048014000180040001C0040BE
:104040000020004010B501F01F030121046A9940CF
:104050008C430462016A9A401143016210BD10B59D
:10406000846842EA032224F47F440A4322438260A4
:1040700010BD826822F070020A4342F0070181609D
:1040800070470000F0B5026A22F001020262036A82
:1040900042688469124E24F073050C682C4323F0A7
:1040A00002058B682B430D4DA84201D0B04205D1CB
:1040B00023F00807CB683B4323F00403A84201D058
:1040C000B04205D14D6922F4407215438A692A43F2
:1040D00042608461496841630362F0BD00000140B1
:1040E00000040140F0B5026A22F010020262026A86
:1040F000436884690D6824F4E64444EA05248D6825
:1041000022F0200242EA05120F4D104EA84201D0C3
:10411000B04206D1CF6822F0800242EA071222F0B4
:104120004002A84201D0B04207D14D6923F4406358
:1041300043EA85038D6943EA8503436084614968E6
:1041400081630262F0BD00000000014000040140F4
:10415000F0B5026A22F480720262026A4368C4699E
:1041600022F4007224F073050C68124E2C438D6803
:1041700042EA05220E4DA84201D0B04206D1CF68D6
:1041800022F4006242EA072222F48062A84201D0AF
:10419000B04207D14D6923F4405343EA05138D69BA
:1041A00043EA05134360C4614968C1630262F0BD1C
:1041B000000001400004014030B5026A22F4805240
:1041C0000262046A4268C3690D6823F4E64343EA65
:1041D00005238D6824F4005444EA0534084DA842B0
:1041E00002D0084DA84204D14D6922F4804242EA2F
:1041F00085124260C36149680164046230BD0000F9
:10420000000001400004014010B5036A046A24F074
:1042100001040462846924F0F00444EA021423F0E7
:104220000A020A438461026210BD10B5036A23F0DA
:10423000100303628369046A23F4704343EA023281
:1042400024F0A00343EA01118261016210BD000065
:1042500010B5154C00220821012001F0B9FFA06023
:104260000028F7D000220421012001F0B1FF2060D6
:104270000028F7D000222421012001F0A9FFE060EE
:104280000028F7D000223021032001F0A1FF606058
:104290000028F7D000220821012001F099FF2061B9
:1042A0000028F7D010BD0000C401002010B504485C
:1042B00000F098F9BDE810400148FEF7D7B90000BA
:1042C0009405002010B5044800F08CF9BDE81040BA
:1042D0000148FEF7CBB90000D405002010B5806B73
:1042E0000021C185C184FEF7C0F910BD70B5846B93
:1042F0002068406994F83910C0F3C01000252129C6
:1043000004D118B1E584204600F046F820684069E1
:1043100094F83A10C0F38010222904D118B1E58531
:10432000204600F02BF8E06B40F01000E0632046E0
:10433000FEF79BF970BD10B50146806B09680968EE
:10434000C90513D40021C1850168CA6822F48072AE
:10435000CA6001684A6922F001024A6101684A693B
:1043600022F040024A61202180F83A10FEF7AAFBB1
:1043700010BD10B5806BFEF7A6FB10BD0168CA68C2
:1043800022F49072CA6001684A6922F001024A610F
:10439000202180F83A1070470168CA6822F0C002F4
:1043A000CA60202180F83910704710B590F83A1093
:1043B000222901D0022010BD8168B1F5805F11D0A3
:1043C0000169002901681FD0496801F07F03816AF3
:1043D0004A1C82620B70C18D491E0904090CC185FB
:1043E00018D02BE00269816A002A0268526805D061
:1043F000D2B20A80816A491C8162ECE7C2F30802EA
:104400000A80816A891CF7E74A68816A4B1C8362CB
:104410000A70E0E70168CA6822F02002CA600168F9
:10442000CA6822F48072CA6001684A6922F00102F7
:104430004A61202180F83A10FEF744FB002010BDAD
:104440002DE9F041044600680169E26821F4405119
:10445000114301612169A068E26908436169114360
:1044600008432168CA6849F20C639A430243CA6050
:1044700020684169A26921F4407111434161E069FA
:10448000192764253226B0F5004F354A3549206892
:104490004FF0000806D0884201D0904236D1FDF797
:1044A00075FA35E0884201D0904202D1FDF76EFAEC
:1044B00001E0FDF75BFA61684A18A0FB070148EBD1
:1044C0000803FBF7DDFE0146B0FBF5F00201B1FB8E
:1044D000F5F06FF01803584301EB800006EBC000C5
:1044E000B0FBF5F000F0F80002EB4002B1FBF5F094
:1044F000584301EB800006EBC000B0FBF5F000F084
:104500000700216810448860BDE8F081FDF72EFAAD
:1045100061688B0F8A00A0FB0701FBF7B1FE014623
:10452000B0FBF5F06FF01802504301EB800006EB92
:104530000010B0FBF5F000F0F002B1FBF5F002EB7B
:104540000012B1FBF5F06FF01803584301EB800047
:1045500006EB0010B0FBF5F000F00F00D1E7000013
:10456000001401400010014090F83910212901D0B9
:10457000022070478168B1F5805F016A0BD04A1C48
:104580000262026809785160C18C491E0904090C55
:10459000C1840ED017E009880268C1F30801516098
:1045A00001690029016A02D0491C0162ECE7891CFB
:1045B000FBE70168CA6822F08002CA600068C1682F
:1045C00041F04001C16000207047000010B5044870
:1045D00000F008F8BDE810400148FEF747B80000B9
:1045E0005406002010B5044600680B49884202D1E9
:1045F0000A48FFF735F90A492068884202D109487C
:10460000FFF77EF908492068884204D1BDE81040D0
:104610000648FEF7C5BB10BD004C004094050020C5
:1046200000500040D4050020004400405406002003
:10463000FEE703B401984100009850EAC12018BF7A
:1046400004204A0D18BF40F0010040F2FF72B2EBA7
:10465000515F08BF40F00200012808BF052002B0EA
:1046600070470907090E002804DB00F1E02080F8FC
:104670000014704700F00F0000F1E02080F8141DD6
:1046800070470000000000002DE9F04D2DED040BF7
:104690002DED0E8B96B0DDE92550279CDDF890A01E
:1046A00025F0004624F00048BAF1000F14BF0121A4
:1046B000002101EB4502FC4953184A1093422AD3CA
:1046C000002814BF0123002303EB44030B44F749E4
:1046D0008B4220D358EA00019FEDF59B76D0DFF89E
:1046E000D8B35D4503D1BAF1000F05D188E0BAF126
:1046F000000F08BF002100D0012101EB450111F599
:10470000001F08D8002814BF0121002101EB44013B
:1047100011F5001F0BD99DED261B9DED240B16B046
:10472000BDEC0E8B04B0BDE8F04D00F069BE002773
:10473000002DBCBFE149884521DAE1498845A8BF81
:1047400002271CDAC3451ADCDE4901EB2851142983
:1047500008DDC1F1340220FA02F101FA02F28242CC
:104760000DD108E058B9C1F1140228FA02F101FA9A
:1047700002F2424503D101F00101C1F1020756EAFC
:104780000A0124D1002C22DA002D18BF022F01D0FB
:10479000012F0AD0022000F07FFE16B0BDEC0E8B78
:1047A00004B0BDE8F04D00F013BE022000F074FE2E
:1047B00000F00EFE51EC100B81F0004141EC100BAB
:1047C00016B0BDEC0E8B04B0BDE8F08D18E09FED87
:1047D000BEAB9FEDBF8B002871D1B848804522D178
:1047E00005F1804010F5801008BFBAF1000F07D026
:1047F000B3450ADC002CA8BF9DED260BE0DA0DE0E6
:10480000B0EE490AF0EE690ADAE7002C06DA9DED0F
:10481000260B51EC100B81F000416FE0AE4878445C
:1048200090ED000BCCE7D8454DD1002C48DA2EB1E5
:1048300086423AD1BAF1000F42D126E0BAF1000F18
:1048400013D0022000F028FE00F0F6FD8DED020BE3
:104850009DED240B8DED000B10EE900A039961F392
:104860001E0003909DED020BAAE78DED02AB9DEDBE
:10487000240B1AEE901A10EE900A8DED000B61F3E6
:104880001E0003909DED020B9AE78DED028B9DEDCE
:10489000240B18EE901A10EE900A8DED000B61F3C8
:1048A0001E0003909DED020B8AE709DA9DED240BB3
:1048B00051EC190B53EC102BFBF750FE1EE020E0DF
:1048C0009DED240B7CE786421BDAB4F1804F0DD0BE
:1048D000A4F10050B0F1FF5013D1002D11DB9DED7C
:1048E000240B51EC100B01F0D7F907E09DED240BE0
:1048F00053EC102B51EC100B00F0C2BC41EC100B30
:104900005EE79DED240B51EC100B00F0E2FDBAF1D7
:10491000000FCDE90E0142D19FED710B46B3A6F118
:10492000E040B0F17F600CD05E4538D1002D00DA58
:10493000A7B3022F0CBF01204FF0FF30FBF77DFE25
:10494000DCE7002D01DD002C0DDA002D01DD002C4F
:104950001FDB002D16DA002C14DB012F08BF9FEDA2
:10496000620B3FF42DAFB0EE4A0AF0EE6A0A27E779
:10497000022F18BF002D0CD0012F0AD1002DFFF6F9
:104980001FAF06E0002DB8BF002C08DA012F3FF45E
:1049900017AFB0EE480AF0EE680A11E71BE00120FD
:1049A00000EBE57050EA070115D0791EB0EE498A98
:1049B000F0EE698A084308BF9FED4D8B4E480025F5
:1049C000804570DD4D494E48884514DDB0420DDB11
:1049D000002C19DB2FE0012000F05EFD16B0BDECCD
:1049E0000E8B04B0BDE8F04D00F016BDB34502DCFF
:1049F000002C09DC1FE0864202DA002C1BDA03E0FF
:104A00005E452BDD002C16DD022000F045FD00F098
:104A100013FD8DED020B53EC1A2B51EC180BFBF729
:104A20002BFDCDE900010399019861F31E0003906D
:104A30009DED020BC4E6022000F02EFD00F00CFDFF
:104A400010EE901A18EE900A8DED020B8DED008B92
:104A500061F31E0003909DED020BB1E69DED0E0B80
:104A600053EC192B51EC100BFBF700FD9FED260BBF
:104A7000CDE9080153EC102B9DED080B51EC100B08
:104A8000FBF7FAFC9FED221B53EC112BFBF7F1FC1B
:104A90009DED081B53EC112BFBF7EEFC9FED1E1B4D
:104AA00053EC112B3CE08CE0FFFF1F00FFFF0F00D9
:104AB000000000000000F03F0000F03F0000F07F29
:104AC0000000404301FCFFFF000000000000F07FF9
:104AD00000000000000000001E2400000000000094
:104AE0000000000000000080000000000000F0FF57
:104AF000000000000000F0BF0000E0410000F043B3
:104B0000FFFFEF3F00000000000000000000D03F6A
:104B1000555555555555D53F000000000000E03F64
:104B2000FBF7A7FC9DED080B41EC1A0B53EC102B87
:104B300051EC100BFBF7A0FC53EC1A2BFBF79CFC81
:104B400041EC1A0B9FEDFE0B53EC102B9DED080B67
:104B500051EC100BFBF790FC41EC1B0B9FEDFA0B9B
:104B600051EC1A0B53EC102BFBF786FC41EC1A0BA3
:104B70009FEDF70B53EC102B9DED080B51EC100B38
:104B8000FBF77AFC53EC1A2BFBF770FC41EC1A0B89
:104B900051EC1B0B53EC1A2BFBF7C7FB0690CDE92E
:104BA00006519DED060B53EC1B2B51EC100BFBF744
:104BB0005DFC53EC1A2BFBF75CFC41EC100B00F096
:104BC000A1B90020B6F5801F0EDA9FEDE30B53EC80
:104BD000102B9DED0E0B51EC100BFBF74DFCCDE9AE
:104BE0000E016FF034000E4600EB2650A0F2FF37A6
:104BF000C6F31300DA4940F07F6646F0405688421B
:104C0000D8BF002408DDD7498142C8BF012403DC96
:104C10000024A6F580167F1CD348784400EBC4001E
:104C20000F9690ED00CB9DED0E0B53EC1C2B51EC31
:104C3000100BFBF71BFC9DED0E0B41EC1B0B53EC1B
:104C40001C2B51EC100BFBF770FB41EC100B51ECE3
:104C5000190B53EC102BFBF781FC41EC1D0B51ECB5
:104C60001B0B53EC1D2BFBF707FC41EC1A0BBF4849
:104C70008DED10AB7844109590ED000B4FF0005087
:104C800040EA660000EB84408DED080B00F5002043
:104C900009909DED080B53EC1C2B51EC100BFBF70E
:104CA000E5FB9DED0E1B53EC112BFBF7E2FB41ECFA
:104CB000100B53EC102B9DED100B51EC100BFBF770
:104CC000DBFB9DED080B41EC1C0B53EC102B9DED19
:104CD000100B51EC100BFBF7CFFB53EC1B2BFBF72E
:104CE000C8FB53EC1C2BFBF7C1FB53EC1D2BFBF754
:104CF000C3FB41EC1C0B53EC1A2B51EC1A0BFBF7CA
:104D0000BBFB41EC1B0B9A480621B0EE4B0AF0EEC0
:104D10006B0A784400F0E0FAB0EE401AF0EE601A48
:104D2000B0EE41DAF0EE61DA53EC1B2B51EC1B0BC9
:104D3000FBF7A2FB53EC1D2BFBF79EFB9DED100B2D
:104D400041EC1B0B53EC1A2B51EC100BFBF7EDFA5B
:104D500053EC1C2BFBF790FB53EC1B2BFBF7E5FAFA
:104D60009DED100B41EC1B0B53EC102B51EC100B79
:104D7000FBF782FB41EC1D0B9FED7FEB53EC1E2BF1
:104D8000FBF7D3FA53EC1B2BFBF7CFFA0890CDE9D6
:104D900008519DED080B53EC1E2B51EC100BFBF74B
:104DA00065FB53EC1D2BFBF761FB53EC1B2BFBF757
:104DB00060FB9DED080B41EC1D0B53EC102B9DEDA2
:104DC000100B51EC100BFBF757FB41EC1B0B53EC9A
:104DD0001A2B51EC1D0BFBF74FFB9DED080B41EC23
:104DE0001A0B53EC102B51EC1C0BFBF745FB53EC4F
:104DF0001A2BFBF79AFA41EC1A0B51EC1B0B53ECF4
:104E00001A2BFBF792FA0C90CDE90C519DED0C0B8F
:104E100053EC1B2B51EC100BFBF728FB53EC1A2B1C
:104E2000FBF727FB41EC1B0B9FED550B53EC102BB5
:104E30009DED0C0B51EC100BFBF71EFB41EC1A0B1C
:104E40009FED510B51EC1B0B53EC102BFBF714FB9C
:104E500041EC1B0B9FED4E0B53EC102B9DED0C0BFF
:104E600051EC100BFBF708FB53EC1B2BFBF75DFA27
:104E700041EC100B4848784400EBC40090ED001B57
:104E800051EC100B53EC112BFBF74FFA41EC1B0BC1
:104E90003846FBF7D2FBCDE9080153EC1B2B51EC54
:104EA0001A0BFBF742FA41EC100B3C48784400EB3C
:104EB000C40090ED00CB51EC100B53EC1C2BFBF716
:104EC00034FA9DED081B53EC112BFBF72EFA0690DC
:104ED000CDE906519DED080B53EC102B9DED060B13
:104EE00051EC100BFBF7C2FA53EC1C2BFBF7BEFA8C
:104EF00053EC1A2BFBF7BAFA53EC1B2BFBF7B9FA5E
:104F000041EC100B9DED261B53EC102B8DED001B7F
:104F100000959DED260B51EC100BFBF7ADFA9DEDC6
:104F2000000B41EC1A0B53EC102B9DED260B51ECB2
:104F3000100BFBF79BFA9DED061B53EC112B2FE09A
:104F4000000000604715F73FFE822B654715F73FCD
:104F500044DF5DF80BAE543E00000000000040430B
:104F60008E9803007AB60B009A1F0000C81F00003D
:104F7000D21E0000000000000000000000000840F9
:104F8000000000E009C7EE3FFD033ADC09C7EE3F31
:104F9000F5015B14E02F3EBE5E1D0000181D0000F1
:104FA000FBF76AFA53EC1A2BFBF7BFF99DED060BE2
:104FB00041EC1A0B53EC102B9DED000B51EC100B38
:104FC000FBF75AFACDE90C019DED0C0B51EC1A0BD5
:104FD00053EC102BFBF7A9F9CDE902010C46AA49C5
:104FE0008C422FDB611A084318D19DED0C0B53EC5A
:104FF000102B9DED020B51EC100BFBF737FA41EC37
:105000001B0B9FEDA30B51EC1A0B53EC102BFBF772
:105010008CF953EC1B2BFBF77FFB2DD2022000F009
:105020003BFA00F009FA10EE901A18EE900A8DED96
:10503000020B8DED008B61F31E0003909DED020BC2
:10504000FFF7BEBB944A24F00041914214D3934928
:10505000214408437FF4EFAC9DED0C0B53EC102B77
:105060009DED020B51EC100BFBF700FA53EC1A2BE1
:10507000FBF752FB7FF6DFAC24F000408849894AF9
:10508000002601EB205182422BDA481C4FF480119C
:1050900021FA00F02044844AC0F30A517A44A1F274
:1050A000FF3192ED000B814A8DED080BCA4020EADA
:1050B0000202C0F3130040F48010C1F1140120FA81
:1050C00001F60992002CB8BF76429DED080B53EC17
:1050D000102B9DED0C0B51EC100BFBF7C7F9CDE934
:1050E0000C019DED0C0B51EC1A0B53EC102BFBF744
:1050F0001CF99FED6F0B0890CDE9085153EC102B74
:105100009DED080B51EC100BFBF7B6F941EC1B0BB6
:105110009FED690B53EC102B9DED080B51EC100B20
:10512000FBF7AAF99DED0C0B41EC1C0B53EC102B7B
:105130009DED080B51EC100BFBF798F953EC1A2B73
:10514000FBF797F99FED5E1B53EC112BFBF794F9DE
:1051500053EC1C2BFBF7E9F841EC1A0B51EC1B0B41
:1051600053EC1A2BFBF7E1F8CDE902019DED020BA0
:1051700053EC1B2B51EC100BFBF778F953EC1A2B6B
:10518000FBF777F99DED020B41EC1A0B53EC102B5A
:1051900051EC100BFBF770F9CDE908014A489DED81
:1051A000080B0521784400F097F89DED081B51ECA1
:1051B000100B53EC112BFBF75FF99DED021B53EC29
:1051C000112BFBF756F9CDE906019DED020B53ECCF
:1051D0001A2B51EC100BFBF74FF953EC1A2BFBF782
:1051E000A4F89FED3B0B41EC1A0B53EC102B9DEDFB
:1051F000060B51EC100BFBF739F99DED060B41EC5A
:105200001B0B53EC102B9DED020B51EC100BFBF71D
:1052100033F953EC1B2BFBF7A1F953EC1A2BFBF7DB
:1052200025F99DED021B53EC112BFBF71FF953ECF5
:10523000192BFBF71EF9CDE9020101EB0650011510
:105240000029C8BF039015DC9DED020B324651ECDE
:10525000100BFBF75AFBFFF7ECF9042808BF00F02E
:10526000FBF832469DED020B51EC100BFBF74DFBAA
:10527000CDE902019DED020B51EC180B53EC102B04
:10528000FBF7FAF8FFF73ABB00009040000000007F
:10529000FE822B654715973C00CC904000346F3F51
:1052A00001FCFFFF0000E03FA01B0000FFFF0F001C
:1052B00000000000432EE63F396CA80C615C20BE64
:1052C000EF39FAFE422EE63F701A0000000000009F
:1052D000000000000000004070B504462DED028B78
:1052E0004D1E00EBC500B0EE408AF0EE608A90EDF6
:1052F000000B35F0060017D053EC182B51EC100BB7
:10530000FBF7BAF841EC100B6D1E04EBC50090EDF5
:10531000001B51EC100B53EC112BFBF706F841EC82
:10532000100B35F00600E7D1022D36D0042D1CD02D
:10533000062D1CBFBDEC028B70BD53EC182B51EC3D
:10534000100BFBF799F894ED0A1B53EC112BFAF7AD
:10535000ECFF53EC182BFBF78FF894ED081B53EC84
:10536000112BFAF7E2FF41EC100B53EC182B51EC28
:10537000100BFBF781F894ED061B53EC112BFAF799
:10538000D4FF53EC182BFBF777F894ED040B53EC98
:10539000102BFAF7CAFF41EC100B53EC182B51EC11
:1053A000100BFBF769F894ED021B53EC112BFAF785
:1053B000BCFF53EC182BFBF75FF894ED001B53EC8C
:1053C000112BFAF7B2FFBDEC028B41EC100B70BD54
:1053D0009FED070B10B553EC102B9FED070B51EC15
:1053E000100BFBF7BBF841EC100B10BD00000000E8
:1053F0000000000000000000000000000000F03F7E
:1054000010B553EC112B51EC100BFAF78EFF41EC59
:10541000100B10BD000000009FED050B10B553EC04
:10542000102B51EC100BFBF799F841EC100B10BD51
:1054300000000000000000009FED050B10B553ECCC
:10544000102B51EC100BFBF717F841EC100B10BDB3
:1054500000000000000000709FED050B10B553EC3C
:10546000102B51EC100BFBF707F841EC100B10BDA3
:10547000000000000000001002E008C8121F08C170
:10548000002AFAD170477047002001E001C1121FC5
:10549000002AFBD1704700000149086070470000F6
:1054A000D801002010B5044601F0D0F901282046AB
:1054B00003D0BDE8104000F06AB8BDE81040FBF72B
:1054C000B9BF4101002001E000BF401C8842FBD36E
:1054D000704782B0CDE9000121F0004001909DEDC0
:1054E000000B02B051EC100B7047000010B50446E1
:1054F000FCF798F8034951F8242041F82400821A57
:10550000104610BDFCD1002038B5084C2068C16899
:1055100041F01001C1604FF4807205492046FDF74B
:1055200085FA206801684068009038BD5406002064
:10553000ACD00020FCF7B4F8FEF7C8FCFDF726FE5F
:10554000FDF7BCFDFDF7DAFEFDF74CFFFDF79AFF16
:10555000FDF708FFFEF71EF8FEF738F8FDF7E2FF4B
:10556000FDF7FCFFFDF7A8FE00F0F2FAFDF7BAFC2C
:10557000FBF770FAFDF78AFEFDF7C6FD00F00EF8A6
:10558000FEE701460020842900D0C81C704710B5F2
:1055900000B9012000F0A4FC002010BD10B500F0FF
:1055A00031FD002010BD7FB50D4604464169B0F9BC
:1055B000080081B1A16971B1FFF7E3FFD4E90512D9
:1055C0008DE80700D4E900102B46226901F013F999
:1055D000039004B070BDFFF7D4FF03A9CDE900012B
:1055E000208A2B4682B2D4E9001001F0D7F80128B6
:1055F00001D00020EDE70398EBE700002DE9F04132
:10560000184C0F46054666692068001D00F07BFBBC
:1056100038B9206890F82C1001208840A169814396
:10562000A161681C07D137B12168BDE8F0410E487F
:10563000091D00F0ABBB20683544B54245602168C8
:1056400005D2A068BDE8F041091D00F087BB606885
:10565000091D00F083FB206B854200D22563BDE865
:10566000F081000024000020D00800202DE9F04146
:10567000054600F097FB2E4C2069401C20612068F5
:105680002C4F10B1E06940B32DE02560206901285E
:1056900029D1002606EB860007EB800000F050FBC6
:1056A000761C072EF6D323488C3000F049FB2148A6
:1056B000A03000F045FB1F48B43000F041FB1D480E
:1056C000C83000F03DFB1B48DC3000F039FB1948C6
:1056D0008C3060601430A06005E02068E96AC06A20
:1056E000884200D82560E06A401CE062E96A012037
:1056F000A26988401043A06101EB810007EB8000A4
:10570000291D00F043FB00F06DFBE06900280CD080
:105710002068E96AC06A884207D207494FF0805082
:105720000860BFF34F8FBFF36F8FBDE8F0810000BB
:1057300024000020F407002004ED00E030B4026CE7
:105740000B46002A0BD0C1681144C1608468A14295
:1057500001D30168C16030BC1846FAF7C2BD30BC45
:1057600070472DE9F041856B174604460026026C10
:1057700082B1C7B1E068FAF7B4FDE168206C091A9C
:10578000E1602268914202D2A168081AE060022F0B
:1057900016D017E02068A8B9A06801F0CFF8064637
:1057A0000020A0600EE06068FAF79BFD216C606845
:1057B00008446060A168884204D32068606001E00A
:1057C00005B16D1E6D1CA5633046BDE8F08110B5B6
:1057D000044690F8510058B101280CD002280FD08F
:1057E000502080F31188BFF34F8FBFF36F8FFEE718
:1057F000206B00F00BFB2046BDE8104000F006BB1C
:1058000010BD00000F484CF25031420705D0C01DBA
:105810000C4A20F00700821A891A0B4A002301441F
:10582000C2E900030839103A21F0070111604B600A
:105830000B600B1AC0E9001393604FF000405360F7
:10584000D0607047E408002070000020144E154C12
:10585000A6F1C8074FF08058DFF84C9012E000BF67
:1058600000F0A0FAF068C568281D00F04CFA206925
:10587000401E2061E068401EE06000F0B3FA284658
:10588000FFF7A5FFE0680028EAD138680128F9D9B8
:10589000C9F80080BFF34F8FBFF36F8FF2E70000AE
:1058A000BC0800202400002004ED00E0034600981E
:1058B00029B10260C0E90F31012100F0ADBC0060E8
:1058C000F8E72DE9F0479A46DDE9098481466FF053
:1058D0000303206B03EB82021044089E20F00707AD
:1058E000780707D0502080F31188BFF34F8FBFF3A4
:1058F0006F8FFEE7002561B1002023180A5C83F852
:1059000034200A5C12B1401C1028F6D384F84350AE
:1059100001E084F83450072E00D30626E662C4E97D
:105920001165201D00F017FA04F1180000F013FAB9
:105930002461C6F107006462A061E56484F85050F8
:1059400052464946384600F091F92060B8F1000F00
:1059500001D0C8F80040BDE8F087000030B511491B
:1059600000E011460A688242FBD34B685C1884420F
:1059700003D1406818444860084643681C189442A4
:1059800009D1084C103C2468A24209D052681A443C
:1059900042600A6812680260814200D0086030BD2F
:1059A0000460F9E77000002010B5044600F0FAF931
:1059B000A06B28B15FF0000400F014FA204610BD7F
:1059C0000124F9E706484168096829B14168C968B6
:1059D000C9684968016370474FF0FF31FAE700007A
:1059E0002400002008484068401C4FF0500080F31D
:1059F000118804D0BFF34F8FBFF36F8FFEE7BFF363
:105A00004F8FBFF36F8FFEE7780000202DE9F04144
:105A1000044600F0C7F994F9455004F1240609E062
:105A2000606A48B1304600F0D5FF08B100F0CCFA0A
:105A30006D1E6DB2002DF3DC4FF0FF3684F845602B
:105A400000F0D0F900F0AEF994F9445004F11007D9
:105A500009E0206948B1384600F0BCFF08B100F009
:105A6000B3FA6D1E6DB2002DF3DC84F84460BDE81E
:105A7000F04100F0B7B900002DE9F04105460027DC
:105A800000F0F6FA314E306808B9FFF7BBFEF06857
:105A900005424BD1C5B3083568070ED005F00700A5
:105AA000C0F108000544680707D0502080F3118832
:105AB000BFF34F8FBFF36F8FFEE72DB37068854242
:105AC00034D82248103001460C6801E020460C46CC
:105AD0006168A94202D221680029F7D131688C425D
